:020000040800F2
:1000000000040020C10100089502000891020008C8
:100010009302000809020008ED0300080000000038
:10002000000000000000000000000000B502000811
:100030000B02000800000000970200088D03000872
:10004000DB010008DB010008DB010008DB01000820
:10005000DB010008DB010008DB010008DB01000810
:10006000DB010008DB010008DB010008DB01000800
:10007000DB010008DB010008DB010008DB010008F0
:10008000DB010008DB010008DB010008DB010008E0
:10009000DB010008DB010008DB010008DB010008D0
:1000A000DB010008DB010008DB010008DB010008C0
:1000B000DB010008DB010008DB010008DB010008B0
:1000C000DB010008DB010008DB010008DB010008A0
:1000D000DB010008DB010008DB010008DB01000890
:1000E000DB010008DB010008DB010008DB01000880
:1000F000DB010008DB010008DB010008DB01000870
:10010000DB010008DB010008DB010008DB0100085F
:10011000DB010008DB010008DB010008DB0100084F
:10012000DB010008DB010008DB010008DB0100083F
:10013000DB010008DB010008DB010008DB0100082F
:10014000DB010008DB010008DB010008DB0100081F
:10015000DB010008DB010008DB010008DB0100080F
:10016000DB010008DB010008DB010008DB010008FF
:10017000DB010008DB010008DB010008DB010008EF
:10018000DB010008DB010008DB010008DB010008DF
:10019000DB010008DB010008DB010008DB010008CF
:1001A000DB010008DB010008DB010008DFF80CD0F0
:1001B00000F018F800480047690400080004002017
:1001C0000648804706480047FEE7FEE7FEE7FEE7F1
:1001D000FEE7FEE7FEE7FEE7FEE7FEE79103000825
:1001E000AD010008064C074D06E0E06840F0010351
:1001F00094E8070098471034AC42F6D3FFF7DAFFD3
:10020000A4040008B4040008FEE770472DE9F0419B
:10021000002201274FF0030C07FA02F50B682B4070
:10022000AB422CD1066853000CFA03F4A6430660D7
:100230000E79D0F800809E4046EA080606600E79E6
:10024000012E01D0022E12D18668A64386604E7917
:10025000D0F808809E4046EA080686604668AE43AD
:10026000466045688E799640B6B235434560C568AC
:10027000A543C560CC799C40C3681C43C460521C34
:10028000102AC9D3BDE8F0814183704701837047CC
:10029000FEE7FEE770477047054A002903D0116862
:1002A000014311607047116881431160704700007D
:1002B00030380240704700001CB5002101910091C8
:1002C0002E4A106840F4803010604FF4A04310684C
:1002D00000F4003000900198401C0190009810B983
:1002E00001989842F3D11068800302D50120009054
:1002F00000E00091009801283FD12048403001687B
:1003000041F0805101601E49086840F44040086097
:100310001A48083003680360036843F4004303602D
:10032000036843F4A0530360041F164B2360136853
:1003300043F08073136013689B01FCD50A6842F494
:1003400080320A604A68D203FCD50A6842F400325F
:100350000A604A689203FCD50B4A40F205711160AD
:10036000016821F003010160016841F002010160B0
:100370000168C1F381010229FAD11CBD0038024095
:1003800000700040195A4007003C024070470000CE
:1003900010B51248016841F470010160104801680D
:1003A00041F0010101600E4A00210832116002682B
:1003B0000C4B1A400260031D0B4A1A60026822F4BB
:1003C0008022026006480C300160FFF775FF034988
:1003D0004FF000608039086010BD000088ED00E03B
:1003E00000380240FFFFF6FE10300024FEE702E076
:1003F00008C8121F08C1002AFAD1704770470020B0
:1004000001E001C1121F002AFBD170477CB5012118
:100410004FF49070FFF740FF0220009001248DF808
:10042000044000218DF806108DF807408DF8050076
:100430000B4D69462846FFF7E9FE009469462846B9
:10044000FFF7E4FEE0020090064C69462046FFF705
:10045000DDFE2115009169462046FFF7D7FE7CBDE1
:100460000014024000200240FFF7D0FF0B4D0C4E5D
:10047000EF144FF480682C4602212046FFF706FF58
:1004800001212046FFF702FF344639462046FFF798
:10049000FBFE41462046FFF7F7FEECE70014024062
:1004A00000200240B4040008000000200004000006
:0404B000FE0300083F
:04000005080001AD41
:00000001FF
