:020000040800F2
:10000000C8310120790200082D04000829040008E5
:100010002B040008A9030008BD050008000000002B
:10002000000000000000000000000000C101000806
:10003000AB030008000000001502000835050008A9
:10004000930200089302000893020008930200083C
:10005000930200089302000893020008930200082C
:10006000930200089302000893020008930200081C
:10007000930200089302000893020008930200080C
:1000800093020008930200089302000893020008FC
:1000900093020008930200089302000893020008EC
:1000A00093020008930200089302000893020008DC
:1000B00093020008930200089302000893020008CC
:1000C00093020008930200089302000893020008BC
:1000D00093020008930200089302000893020008AC
:1000E000930200089302000893020008930200089C
:1000F000930200089302000893020008930200088C
:10010000930200089302000893020008930200087B
:10011000930200089302000893020008930200086B
:10012000930200089302000893020008930200085B
:10013000930200089302000893020008930200084B
:10014000930200089302000893020008930200083B
:10015000930200089302000893020008930200082B
:10016000930200089302000893020008930200081B
:10017000930200089302000893020008930200080B
:1001800093020008930200089302000893020008FB
:1001900093020008930200089302000893020008EB
:1001A000930200089302000893020008DFF80CD0C5
:1001B00000F098F8004800474D060008C8310120BB
:1001C0002A4B19680868B0E8F04F80F30988BFF33C
:1001D0006F8F4FF0000080F311887047000000001F
:1001E00006480068006880F3088862B661B6BFF30D
:1001F0004F8FBFF36F8F00DF00BF00BF08ED00E03F
:10020000DFF80C00016841F470010160704700BF25
:1002100088ED00E0EFF30980BFF36F8F134B1A688E
:100220001EF0100F08BF20ED108A20E9F04F10607B
:1002300008B44FF0500080F31188BFF34F8FBFF325
:100240006F8F01F097F84FF0000080F3118808BC21
:1002500019680868B0E8F04F1EF0100F08BFB0EC46
:10026000108A80F30988BFF36F8F70472400002045
:10027000EFF30580704700000648804706480047B6
:10028000FEE7FEE7FEE7FEE7FEE7FEE7FEE7FEE746
:10029000FEE7FEE761050008AD01000840EA010342
:1002A0009B0703D009E008C9121F08C0042AFAD22C
:1002B00003E011F8013B00F8013B521EF9D27047F0
:1002C000D2B201E000F8012B491EFBD27047002298
:1002D000F6E710B513460A4604461946FFF7F0FF45
:1002E000204610BD064C074D06E0E06840F00103D3
:1002F00094E8070098471034AC42F6D3FFF75AFF52
:10030000AC1D0008CC1D00081CB5012115484C028D
:10031000CDE900100023224613A1164801F050FB3E
:1003200010480221001DCDE900100023224612A131
:10033000144801F045FB0B4803210830CDE90010BB
:100340000023224610A1134801F03AFB054804217E
:100350000C30CDE90010002322460FA1114801F016
:100360002FFB1CBD00000020765461736B55736534
:1003700072494600D5130008765461736B4C4544AE
:10038000000000007D110008765461736B4D7367A7
:1003900050726F00A1110008765461736B53746141
:1003A00072740000D9120008FEE770472DE9F04191
:1003B000002201274FF0030C07FA02F50B682B40CF
:1003C000AB422CD1066853000CFA03F4A643066036
:1003D0000E79D0F800809E4046EA080606600E7945
:1003E000012E01D0022E12D18668A64386604E7976
:1003F000D0F808809E4046EA080686604668AE430C
:10040000466045688E799640B6B235434560C5680A
:10041000A543C560CC799C40C3681C43C460521C92
:10042000102AC9D3BDE8F081FEE7FEE7704700005F
:100430000249084302490860704700000000FA05BD
:100440000CED00E0054A002903D01168014311605A
:1004500070471168814311607047000030380240D6
:100460001CB50021019100912E4A106840F48030A3
:1004700010604FF4A043106800F400300090019821
:10048000401C0190009810B901989842F3D110686F
:10049000800302D50120009000E00091009801281F
:1004A0003FD120484030016841F0805101601E4931
:1004B000086840F4404008601A4808300368036048
:1004C000036843F400430360036843F4A0530360EC
:1004D000041F164B2360136843F080731360136886
:1004E0009B01FCD50A6842F480320A604A68D20354
:1004F000FCD50A6842F400320A604A689203FCD5CF
:100500000B4A40F205711160016821F0030101609E
:10051000016841F0020101600168C1F38101022913
:10052000FAD11CBD0038024000700040195A400743
:10053000003C024010B5502080F31188BFF34F8F6C
:10054000BFF36F8F01F080FA18B104494FF080506B
:100550000860002080F3118810BD000004ED00E069
:1005600010B51248016841F470010160104801683B
:1005700041F0010101600E4A002108321160026859
:100580000C4B1A400260031D0B4A1A60026822F4E9
:100590008022026006480C300160FFF761FF0349CA
:1005A0004FF000608039086010BD000088ED00E069
:1005B00000380240FFFFF6FE10300024FEE702E0A4
:1005C00008C8121F08C1002AFAD1704770470020DE
:1005D00001E001C1121F002AFBD1704710B54FF492
:1005E0004070FFF725FFBDE8104000F001B80000A3
:1005F0007CB501214FF49070FFF724FF022000909A
:1006000001248DF8044000218DF806108DF8074074
:100610008DF805000B4D69462846FFF7C7FE00948C
:1006200069462846FFF7C2FEE0020090064C694684
:100630002046FFF7BBFE2115009169462046FFF7D3
:10064000B5FE7CBD0014024000200240012080F372
:100650001088FFF7C3FFFFF757FE00F04BFEFEE7E1
:100660002DE9F04104460F46174EF5683068001D2D
:1006700000F044FC38B9306890F82C100120884014
:10068000316981433161601C07D137B13168BDE800
:10069000F041091D0D4800F069BC2C4430684460ED
:1006A000AC4206D23168B06B091DBDE8F04100F0E4
:1006B00045BC3168706B091D00F040FCB06A844293
:1006C00000D2B462BDE8F081240000208C0100203B
:1006D00070B5044600F056FC1D4DA868401CA8608B
:1006E000286810B1686938B10CE02C60A86801284E
:1006F00008D100F075F905E02868E16AC06A88420F
:1007000000D82C60686A401C68622064E06A01219D
:100710002A698140114329610E4900EB800001EBF9
:100720008000211D00F022FC00F04CFC68690028CC
:100730000CD02868E16AC06A884207D206494FF0A7
:1007400080500860BFF34F8FBFF36F8F70BD000004
:1007500024000020D800002004ED00E010B500F0D7
:1007600011FC0E4C2068A0B90D4800F0D9FB0C48D4
:10077000143000F0D5FB0A48E060143020610022FC
:100780000C210A2000F0A4FE206010B105A100F0A9
:1007900097FCBDE8104000F015BC00006000002090
:1007A000A0010020546D72510000000070B5124E7F
:1007B000124D1CE000F0D6FD306820B1002401F09D
:1007C00033FAA4B901E00124F9E700F0DBFBF0689B
:1007D000C468201D00F092FBA868401EA8606868ED
:1007E000401E686000F0EEFB204600F054F8686898
:1007F0000028DFD170BD0000780100202400002017
:1008000030B40B46026C002A0CD0C1681144C160A0
:100810004468A14201D30168C160C16830BC184678
:10082000FFF73CBD30BC70472DE9F0410446174648
:100830000026A56B226C002A10D0C7B1E068FFF734
:100840002DFDE168206C091AE1602268914202D214
:100850006168081AE060022F16D017E02068A8B976
:10086000606801F057F90646002060600EE0A0685D
:10087000FFF714FD216CA0680844A06061688842FD
:1008800004D32068A06001E005B16D1E6D1CA56356
:100890003046BDE8F08110B50446206B00F0A8FB9F
:1008A0002046BDE8104000F0A3BB00000749CA681D
:1008B0001168002904D00021016019B1002070479F
:1008C0000121F9E7D068006870470000600000204F
:1008D0004FF496310F48420706D0C01D20F00700A4
:1008E0000C49411AC1F596310B4A10600023536040
:1008F0000144083921F00701103A11604B600B6088
:100900000B1A436001604068906050604FF00040F7
:10091000D0607047C801002084000020FFF746FF28
:10092000FCE770B51D46049C002909D02260E063F5
:1009300021640121204600F0B1FE84F84C5070BDC6
:100940002460F4E72DE9F0478146DDE908580A9C68
:100950000E4617469A46B900A522206BFFF7B0FC59
:10096000206B7F1E00EB870020F00707780707D079
:10097000502080F31188BFF34F8FBFF36F8FFEE7D6
:1009800000202218315C82F83410315C11B1401C17
:100990000A28F6D3002684F83D60052D00D30425EF
:1009A000E562A564E664201D00F0C5FA04F11800B4
:1009B00000F0C1FA2461C5F10500A06164622665FA
:1009C00084F8546052464946384600F085FA206063
:1009D000B8F1000F01D0C8F80040BDE8F087000072
:1009E00070B50024124D04EB840005EB800000F08C
:1009F00097FA641C052CF6D30D48643000F090FA89
:100A00000B48783000F08CFA09488C3000F088FAF6
:100A10000748A03000F084FA0548B43000F080FAAE
:100A200003490448643141631431816370BD00009F
:100A3000D80000202400002030B5134900E0114602
:100A40000A688242FBD34B685C18844203D1406839
:100A50001844486008460D6844682318AB420DD11D
:100A6000094B103B1B689A4206D0526822444260F0
:100A70000A681268026002E0036000E002608142DE
:100A800000D0086030BD00008400002070B5002454
:100A9000416000610C4D91420AD8D11A826991429D
:100AA00001D301240EE0011D286900F047FA09E096
:100AB0009A4203D2994201D3012403E0011DE86860
:100AC00000F03CFA204670BD6000002010B50446DE
:100AD00000F058FAA06B20B1002400F073FA204611
:100AE00010BD0124F9E710B5044600F04BFAA06BE5
:100AF000E16B884201D1012400E0002400F062FA99
:100B0000204610BDF8B505460E461448C068C068BA
:100B1000C468201D00F0F2F9E069012810D1A06935
:100B20002B46411932462046FFF7B0FF40B1002066
:100B30000346014600902A46204601F003F928B1F9
:100B4000616A01B02046BDE8F0400847502080F3BC
:100B50001188BFF34F8FBFF36F8FFEE76000002057
:100B600030B585B02B4D4BE00298002848DB049C43
:100B7000606910B1201D00F0C1F901A800F094F8DF
:100B8000024602980A283BD2DFE800F00505053A44
:100B9000263705053A260398A169034601442046F5
:100BA000FFF774FF00B3616A20468847E0690128B7
:100BB00026D1002000900398A1690023421819460D
:100BC000204601F0BFF878B9502080F31188BFF3B8
:100BD0004F8FBFF36F8FFEE70398A06128B1811894
:100BE00013462046FFF752FF0AE0502080F3118899
:100BF000BFF34F8FBFF36F8FFEE7204600F0F8F989
:100C000000231A4602A9286800F084FC0028ABD112
:100C100005B030BD60000020F8B506460D4600F076
:100C2000A1FB684600F040F80446009810B100F0BF
:100C3000FBFFF8BD45B9A64206D800F0F5FF2146F6
:100C40003046FFF75FFFF8BD0C481DB10169096828
:100C500091B10025311B2A46006800F043FA00F0EC
:100C6000E3FF0028EFD106494FF080500860BFF342
:100C70004F8FBFF36F8FF8BD0125EBE760000020B9
:100C800004ED00E00748416B0968002905D0416B7D
:100C9000C968C9684968816270474FF0FF31816255
:100CA000704700002400002070B5054600F0C6FE25
:100CB0000446074EB068844204D200F00BF80120CD
:100CC000286001E000202860B460204670BD00006C
:100CD00060000020F8B5194E1FE0C0680568C468C0
:100CE000201D00F00BF9616A20468847E069012861
:100CF00013D1A0692844A84206D960602461211D4F
:100D0000F06800F01BF908E000200346014600905F
:100D10002A46204601F016F840B1F0680168002923
:100D2000DBD1F0683169F1603061F8BD502080F3AB
:100D30001188BFF34F8FBFF36F8FFEE76000002075
:100D400009484068401C07D0502080F31188BFF349
:100D50004F8FBFF36F8FFEE7502080F31188BFF3F2
:100D60004F8FBFF36F8FFEE78C00002008B56846F9
:100D7000FFF79CFD0099FFF74FFFFFF7F1FEF6E745
:100D80002DE9F041044600F0FDF894F9455004F1D6
:100D9000240609E0606A48B1304600F007FF08B158
:100DA00000F0F8F96D1E6DB2002DF3DC4FF0FF3648
:100DB00084F8456000F006F900F0E4F894F9445036
:100DC00004F1100709E0206948B1384600F0EEFE52
:100DD00008B100F0DFF96D1E6DB2002DF3DC84F870
:100DE0004460BDE8F04100F0EDB800002DE9F041AD
:100DF0000546002600F0B6FA304F386808B9FFF70C
:100E000067FDF86805424AD18DB1083568070ED0F4
:100E100005F00700C0F108000544680707D050201E
:100E200080F31188BFF34F8FBFF36F8FFEE7B5B329
:100E30007868854233D8214910310846046801E0BA
:100E4000214604466068A84202D220680028F7D1F3
:100E50003868844223D00E680836206808606068CD
:100E6000411B10290ED96019420707D0502080F38A
:100E70001188BFF34F8FBFF36F8FFEE7416065604E
:100E8000FFF7DAFD61687868401A7860BA689042C6
:100E900000D2B860F868014361600020206000F073
:100EA000C3FE700707D0502080F31188BFF34F8F27
:100EB000BFF36F8FFEE73046BDE8F081740000207D
:100EC00004490868002803D00868C26C521CC26438
:100ED000086870472400002024384FF080730362B4
:100EE00021F00101C1610449816142606FF002019A
:100EF00040F8201970470000410D00080169D0E951
:100F000001329A60D0E901235A604A68824201D1D5
:100F100082684A60002202610868401E08607047CB
:100F200000F1080141604FF0FF328260C160016151
:100F300000210160704700210161704730B50C68E5
:100F4000621C02D000F1080202E0026904E01A46C5
:100F500053681D68A542FAD953684B6099608A604E
:100F6000516008610168491C016030BD42684A60F7
:100F700093688B6093685960916008610168491CAF
:100F800001607047502080F31188BFF34F8FBFF38B
:100F90006F8F0A494868401C486001280CD10848F6
:100FA000006810F0FF0F07D0502080F31188BFF3C6
:100FB0004F8FBFF36F8FFEE7704700008C0000205B
:100FC00004ED00E009494868002806D0401E48604A
:100FD000002801D180F311887047502080F31188D8
:100FE000BFF34F8FBFF36F8FFEE700008C00002030
:100FF00070B5002827D008380446134D6068E968AA
:10100000084207D1502080F31188BFF34F8FBFF300
:101010006F8FFEE722683AB1502080F31188BFF34A
:101020004F8FBFF36F8FFEE78843606000F09AF93F
:1010300060686968084468602046FFF7FDFCBDE809
:10104000704000F0F1BD70BD7400002006484FF400
:101050007A710068B0FBF1F14FF0E020491E416168
:1010600007210161704700001000002010B5FFF754
:10107000FFF8114910280ED300F1E02090F8F0039A
:101080000A78904207D2502080F31188BFF34F8F27
:10109000BFF36F8FFEE709480068896800F4E060DD
:1010A000884207D9502080F31188BFF34F8FBFF3D8
:1010B0006F8FFEE710BD00008C0000200CED00E0FB
:1010C00010B50022064B53F832401CB1521C082ABE
:1010D000F9D310BD43F8321003EBC201486010BDD4
:1010E0009800002070B504460D461646FFF74AFFEB
:1010F00094F944304FF000005B1C01D184F84400A7
:1011000094F94510491C01D184F84500FFF75AFFB6
:10111000A06B28B93246294604F1240000F068F893
:101120002046BDE87040FFF72BBE000010B5024618
:101130000020002A12D00F48006B38B1502080F3F5
:101140001188BFF34F8FBFF36F8FFEE700F00AF9EE
:1011500000211046FFF784FA00F066FD002807D151
:1011600005494FF080500860BFF34F8FBFF36F8F7A
:1011700010BD00002400002004ED00E0044C2068B5
:1011800080F001002060C820FFF7D0FFF7E70000E3
:101190001414024001490120C86170472400002056
:1011A000054C4FF49675616981F4006161612846D0
:1011B000FFF7BCFFF7E700000020024010B50C4627
:1011C00000280AD0094909681831FFF7B7FE204600
:1011D000BDE810400121FFF743BA502080F3118889
:1011E000BFF34F8FBFF36F8FFEE700002400002096
:1011F00070B50D46144600280DD00B49096818310A
:10120000FFF7B4FE0CB14FF0FF3521462846BDE88C
:101210007040FFF725BA502080F31188BFF34F8F3D
:10122000BFF36F8FFEE700002400002070B5044676
:10123000002839D01D4DE06A2968C96A884233D236
:10124000A069002804DB2868C06AC0F10500A0611D
:10125000E06A174E00EB8000616906EB8000814276
:101260001FD1201DFFF74AFE012150B9E06A00EBB3
:10127000800256F8222022B92A6901FA00F082433E
:101280002A612868C06AE0622A69814011432961A5
:1012900000EB800006EB8000211DBDE87040FFF7E9
:1012A00065BE2868C06AE06270BD000024000020AE
:1012B000D8000020002805D006490A6A0260C968E3
:1012C00041607047502080F31188BFF34F8FBFF308
:1012D0006F8FFEE724000020054C4FF4FA7561691A
:1012E00081F4806161612846FFF720FFF7E7000085
:1012F000002002401CB517480024CDE900402346D9
:10130000822215A1164800F05BFB012801D100F0F4
:10131000F1FC012809D0401C1AD1502080F311881B
:10132000BFF34F8FBFF36F8FFEE7502080F311881C
:10133000BFF34F8FBFF36F8F06484FF0FF312C384C
:10134000816201214161C460BDE81C4000F050B8D9
:101350001CBD00005000002049444C450000000026
:101360001D0900080248016B491C01637047000019
:1013700024000020154A106B002802D00120D06103
:1013800070470020D0611069B0FA80F0C0F11F00F2
:101390000F4900EB800051F8203073B101EB800061
:1013A00041684968416000F10803994201D14968E8
:1013B00041604068C06810607047502080F3118819
:1013C000BFF34F8FBFF36F8FFEE7000024000020B4
:1013D000D8000020054D0224AE1E2C806420FFF7AB
:1013E000A5FE34806420FFF7A1FEF6E71A14024040
:1013F0001CB532480168324A914207D1502080F32F
:101400001188BFF34F8FBFF36F8FFEE700682C4941
:10141000491E884207D1502080F31188BFF34F8FB7
:10142000BFF36F8FFEE7274908780190FF2008700F
:10143000087800909DF800009DF8002000F0F00072
:10144000904207D0502080F31188BFF34F8FBFF335
:101450006F8FFEE79DF800001B4A00F050001070EF
:101460000720906006E09068401E90609DF80000A4
:10147000400000909DF800000006F4D4107A0002AD
:1014800000F4E0609060019808700C48203001681A
:1014900041F470010160016841F070410160FFF7A3
:1014A000D5FD00205060FEF7ABFE0848016841F012
:1014B00040410160FEF794FE00201CBD00ED00E0FD
:1014C00071C20F4100E400E08C00002034EF00E026
:1014D000F8B505460E461746002D11D0C6B105FBDE
:1014E00006F05030FFF782FC04463CB104F1500294
:1014F0003B46314628460094FFF713FA2046F8BDD4
:10150000502080F31188BFF34F8FBFF36F8FFEE73A
:101510000020E6E72DE9FF4F83B004468A469B464C
:101520000026002C03D0BAF1000F08D011E05020A3
:1015300080F31188BFF34F8FBFF36F8FFEE7206CEE
:1015400038B1502080F31188BFF34F8FBFF36F8FF6
:10155000FEE700F065FA48B9059838B1502080F3ED
:101560001188BFF34F8FBFF36F8FFEE74FF0000975
:101570004FF08057DFF82081FFF704FDA56B95B38E
:10158000E66851462046FFF73BF9BBF1000F13D048
:10159000E660606A50B104F1240000F007FB28B156
:1015A000C8F80070BFF34F8FBFF36F8FFFF70AFDCE
:1015B000012007B0BDE8F08F6D1EA563206810B94B
:1015C000FFF77EFC606020690028EFD004F1100076
:1015D00000F0ECFA0028E9D0C8F80070BFF34F8F94
:1015E000BFF36F8FE2E7FFE7059808B126B107E088
:1015F000FFF7E8FC0020DCE701A8FFF75BFE01260F
:10160000FFF7E0FCFFF7AEFEFFF7BCFC94F94400E7
:10161000401C01D184F8449094F94500401C01D14C
:1016200084F84590FFF7CEFC05A901A800F08EF9DB
:1016300058B12046FFF7A4FB00F0F6FA2046FFF76A
:1016400045FA002898D00020B3E72046FFF73EFA7D
:10165000E0B1206830B9FFF795FC6068FFF7E6FD60
:10166000FFF7B0FC04F124000599FFF7A7FD204621
:10167000FFF786FB00F0D8FA00287FF47DAFC8F8AA
:101680000070BFF34F8FBFF36F8F75E72046FFF7F2
:1016900077FB00F0C9FA6FE704ED00E070B504468F
:1016A0000D46002C25D0FFF76DFCD4E90F202168F2
:1016B00002FB001161600021A1632168A160E06B61
:1016C0002268216C401E00FB0121E1604FF0FF30D9
:1016D00084F8440084F8450004F110008DB1FFF750
:1016E0001FFC04F12400FFF71BFCFFF76BFC01203B
:1016F00070BD502080F31188BFF34F8FBFF36F8F01
:10170000FEE721690029F0D000F050FA0028ECD063
:1017100004494FF080500860BFF34F8FBFF36F8FC5
:10172000E3E7000004ED00E02DE9FF4782B0044646
:101730008A461E460025002C03D0BAF1000F08D0BF
:1017400011E0502080F31188BFF34F8FBFF36F8FEC
:10175000FEE7206C38B1502080F31188BFF34F8F23
:10176000BFF36F8FFEE7022E0AD1E06B012807D08E
:10177000502080F31188BFF34F8FBFF36F8FFEE7C8
:1017800000F04EF948B9049838B1502080F3118820
:10179000BFF34F8FBFF36F8FFEE74FF000094FF09D
:1017A0008057DFF8E480FFF7EDFBA06BE16B884228
:1017B00005D3022E03D0049808B325B327E03246A0
:1017C00051462046FFF730F8616A59B104F1240010
:1017D00000F0ECF968B1C8F80070BFF34F8FBFF3A9
:1017E0006F8F06E028B1C8F80070BFF34F8FBFF3CA
:1017F0006F8FFFF7E7FB012006B0BDE8F087FFF72A
:10180000E1FB0020F8E76846FFF754FD0125FFF7EC
:10181000D9FBFFF7A7FDFFF7B5FB94F94400401C87
:1018200001D184F8449094F94500401C01D184F81A
:101830004590FFF7C7FB04A9684600F087F830B170
:101840002046FFF79DFA00F0EFF90020D4E720468C
:10185000FFF749F990B104F110000499FFF7AEFCCD
:101860002046FFF78DFA00F0DFF900289BD1C8F879
:101870000070BFF34F8FBFF36F8F94E72046FFF7E1
:101880007FFA00F0D1F98EE704ED00E02DE9F04792
:101890000446894690461F46002C03D0B9F1000F3C
:1018A00008D011E0502080F31188BFF34F8FBFF3B1
:1018B0006F8FFEE7206C38B1502080F31188BFF3A2
:1018C0004F8FBFF36F8FFEE7022F0AD1E06B012825
:1018D00007D0502080F31188BFF34F8FBFF36F8F75
:1018E000FEE7FFF7C3FB5020EFF3118680F311886A
:1018F000BFF34F8FBFF36F8FA06BE16B884206D3AE
:10190000022F04D0002086F31188BDE8F08794F9F7
:1019100045503A4649462046FEF786FF681C04D0EB
:101920006D1C84F845500120EDE7606A0028FAD06C
:1019300004F1240000F03AF90028F4D0B8F1000FC7
:10194000F1D00120C8F80000EDE7000070B50446B2
:101950000D46002C10D0BDB1FFF714FB174AD0681C
:1019600029684B1C18D02368126A934216D062680B
:10197000824213D801241DE0502080F31188BFF368
:101980004F8FBFF36F8FFEE7502080F31188BFF3B6
:101990004F8FBFF36F8FFEE700240BE06268801A61
:1019A000884206D2081A28602046FFF783FC0024EC
:1019B00000E00124FFF706FB204670BD2400002054
:1019C0002DE9FF5F8146DDE90E788A4616469B4683
:1019D000B000FFF70BFA054628000AD05820FFF7A1
:1019E00005FA04460CB1256304E02846FFF700FB26
:1019F00000E000248CB10020CDE90240CDE9007860
:101A00005B46324651464846FEF79CFF2046FEF7AD
:101A10005FFE012004B0BDE8F09F4FF0FF30F9E712
:101A200005484169002903D0006B18B100207047B8
:101A30000120704702207047240000200148C06840
:101A400070470000240000202DE9F04100262F4FB0
:101A5000386B002808D0B869401CB861F86900B13B
:101A600001263046BDE8F081FD686D1CFD609DB922
:101A7000786B006838B1502080F31188BFF34F8F26
:101A8000BFF36F8FFEE7786BB96B7963B863386A21
:101A9000401C3862FFF7F6F8B86ADFF874808542B8
:101AA0000DD3786B006838B1786BC068C468606823
:101AB00085420ED2B86202E04FF0FF30B86238685B
:101AC000C06A00EB800058F820000128C6D9012622
:101AD000C4E7201DFFF712FAA06A18B104F118003C
:101AE000FFF70CFAE06A01213A698140114339613C
:101AF00000EB800008EB8000211DFFF737FAE06A59
:101B00003968C96A8842CCD30126CAE7240000207C
:101B1000D800002070B504460020002C41D0214D93
:101B200029688C4207D0502080F31188BFF34F8F73
:101B3000BFF36F8FFEE7E16C71B1491EE164A36CE6
:101B4000E26A9A422DD000292BD1201DFFF7D6F949
:101B5000154A012140B112E0502080F31188BFF3F3
:101B60004F8FBFF36F8FFEE7E06A00EB800352F800
:101B7000233023B901FA00F3286998432861A06C47
:101B8000E062C0F10500A061E06A2B698140194361
:101B9000296100EB800002EB8000211DFFF7E6F9D0
:101BA000012070BD24000020D80000202DE9F04164
:101BB000C068C468002C15D004F118000746FFF770
:101BC0009DF9174D2A6B0126A2B139461548FFF73A
:101BD000CDF9E06A2968C96A88421ED90120EE6100
:101BE000BDE8F081502080F31188BFF34F8FBFF321
:101BF0006F8FFEE7201DFFF781F9E06A2A6906FA78
:101C000000F111432961074900EB80008C3901EB99
:101C10008000211DFFF7AAF9DBE70020E0E70000C4
:101C200024000020640100202DE9F0410024002759
:101C30002D4D286B002807D0FFF7A4F9286B401E14
:101C40002863286B40B14AE0502080F31188BFF32D
:101C50004F8FBFF36F8FFEE7A868E8B3DFF88C8083
:101C600001261EE0D8F80C00C46804F11800FFF744
:101C700045F9201DFFF742F9E06A2A6906FA00F1EA
:101C800011432961194900EB80008C3901EB800078
:101C9000211DFFF76BF9E06A2968C96A884200D301
:101CA000EE61D8F800000028DCD10CB1FEF7EAFFA5
:101CB000AC6944B1FFF7C8FE00B1EE61641E002CB0
:101CC000F8D10020A861E86930B101270849380738
:101CD0000860BFF34F8F00E001E0BFF36F8FFFF7A5
:101CE00071F93846BDE8F08124000020640100202D
:101CF00004ED00E01CB50024FEF730FD0D4800683F
:101D000060B10C480221001DCDE9001000234FF402
:101D1000827209A10A48FFF753FE04460CB120461F
:101D20001CBD502080F31188BFF34F8FBFF36F8F1E
:101D3000FEE7000060000020546D722053766300BF
:101D40006D0D0008FEB50646089F9C460020002E3B
:101D500013D0154D2C68002C0ED0009101920296E4
:101D6000062919DAFFF75CFE02280ED000231A4676
:101D700069462868FFF7D8FCFEBD502080F3118823
:101D8000BFF34F8FBFF36F8FFEE700233A466946DC
:101D90002868FFF7C9FCFEBD00236246694620465D
:101DA000FFF774FDFEBD000060000020CC1D0008A0
:101DB0000000002098000000BE050008641E000816
:101DC0009800002030310100CE050008000000001E
:101DD0000000000000000000000000000095BA0AAA
:101DE00000000000000000000102030406070809CB
:101DF00000000000000000000000000000000000E3
:101E000000000000000000000000000000000000D2
:101E100000000000000000000000000000000000C2
:101E200000000000000000000000000000000000B2
:101E300000000000000000000000000000000000A2
:101E40000000000000000000000000000000000092
:101E5000000000000000000000000000AAAAAAAADA
:041E6000000000007E
:04000005080001AD41
:00000001FF
